:100000000C942A000C9447000C9447000C94470071
:100010000C9447000C9447000C9447000C94470044
:100020000C9447000C9447000C9447000C94E30296
:100030000C9447000C9447000C9447000C94470024
:100040000C9447000C9447000C9447000C94470014
:100050000C94470011241FBECFE5D8E0DEBFCDBF12
:1000600010E0A0E6B0E0E8E8FEE002C005900D92E6
:10007000AA38B107D9F720E0AAE8B0E001C01D9284
:10008000AE38B207E1F70E94FA020C9442070C94D2
:10009000000084E890E00E9452040895CF93DF931B
:1000A000C82FD62F0E9410050E9427058830C9F45A
:1000B00082EA0E9419050E9427058831A1F48C2F3D
:1000C0000E9419050E942705883279F48D2F0E941D
:1000D00019050E942705883251F40E94160581E017
:1000E00007C080E005C080E003C080E001C080E080
:1000F000DF91CF9108950F931F93CF93C82F8B015A
:100100000E9410050E942705883039F582EA0E9476
:1001100019050E942705883111F58C2F0E941905B9
:100120000E9427058832E9F40E9410050E942705E5
:100130008031C9F483EA0E9419050E9427058034A2
:10014000A1F40E942005F80180830E9427058835CC
:1001500071F40E94160581E00BC080E009C080E0C8
:1001600007C080E005C080E003C080E001C080E0FF
:10017000CF911F910F91089541E00E94940308953B
:10018000423019F40E94E50308950E94C7030895C0
:1001900041E061E087E390E00E94940341E062E087
:1001A00087E390E00E94940380EF8ABB0895CF9389
:1001B000C82F613019F0623071F01AC041E061E07F
:1001C00088E390E00E94C70340E062E088E390E0AB
:1001D0000E94C70319C041E062E088E390E00E94FA
:1001E000C70340E061E088E390E00E94C7030CC0D1
:1001F00040E061E088E390E00E94C70340E062E0F5
:1002000088E390E00E94C7038BB38F708BBB8BB3E6
:10021000C07FC82BCBBBCF910895CF93DF93EC0168
:100220009C013695279536952795ABE7B4E10E945A
:1002300033079C013695279544E6429FC001439FB2
:10024000900D11249E01281B390BADECBCEC0E94D3
:100250003307969587959695879596958795FC0192
:10026000E05AFF4F62E080810E94D7008FE39CE953
:100270000197F1F700C000009E01ADECBCEC0E94BC
:1002800033079695879596958795969587959C01C2
:10029000220F331F880F991F880F991F880F991FEE
:1002A000820F931F9E01281B390BF901E05AFF4F63
:1002B00061E080810E94D7008FE39CE90197F1F70C
:1002C00000C00000DF91CF91089540E00E949403A8
:1002D00008951F93CF93DF93EC01162F0E94B20372
:1002E00090918A00891791F02FEF89EF90E02150CB
:1002F00080409040E1F700C00000612FCE010E94D5
:10030000B20380938A00813019F403C080E001C0F9
:1003100080E0DF91CF911F9108958AE690E00E94DE
:100320005C03089541E063E084E390E00E9494035D
:1003300041E064E084E390E00E9494030E94C800DE
:1003400060E087E390E00E94650166E081E390E071
:100350000E94650162E081E390E00E94650162E035
:1003600084E390E00E94BC0067E084E390E00E9498
:10037000BC0063E081E390E00E94BC000E948D011C
:100380000E9449000895882399F18130E9F541E000
:1003900063E085E390E00E94C70340E064E085E30A
:1003A00090E00E94C70340E063E082E390E00E9497
:1003B000C00041E067E085E390E00E94C0002FEFBD
:1003C00083ED90E3215080409040E1F700C00000B1
:1003D00040E067E085E390E00E94C0002FEF83ECEF
:1003E00099E0215080409040E1F700C0000008955E
:1003F00040E063E085E390E00E94C70340E067E0EF
:1004000085E390E00E94C00008958823A9F0813020
:10041000F9F441E064E085E390E00E94C70340E026
:1004200063E085E390E00E94C70341E063E082E37C
:1004300090E00E94C000089540E064E085E390E011
:100440000E94C70340E063E082E390E00E94C000A6
:100450000895CF93DF93C82F89E2C89F812D11247F
:1004600082958F70EC2F94E6899FE0191124DDECC2
:10047000ED9FE12D1124E695E695E695F0E0E05A32
:10048000FF4F62E080810E94D7008FE39CE90197D3
:10049000F1F700C00000CD9FD12D1124D695D6953F
:1004A000D695DD0F8D2F880F880FD80FCD1BEC2F21
:1004B000F0E0E05AFF4FC08161E08C2F0E94D7002E
:1004C0008FE39CE90197F1F700C0000063E08C2FF7
:1004D0000E94D7008FE39CE90197F1F700C000006C
:1004E000DF91CF9108950F931F93CF9382E790E010
:1004F0000E94FE0304EF10E048C06DE870E080E069
:100500000E947B0080918D0090E00E940D0166E0CA
:1005100080E390E00E946901C82F62E080E390E0F0
:100520000E946901CC2379F080918D008734D8F442
:100530008B5F80938D0090E00E940D0110928C00E3
:1005400010928B0010C0882371F080918D0088324A
:1005500050F0855080938D0090E00E940D01109224
:100560008C0010928B0080918B0090918C0008176A
:10057000190759F46DE870E080E00E947B008091DB
:100580008D000E9429020C501F4F80918B0090918A
:100590008C00843C944008F4B0CF60918D0080E0E2
:1005A0000E944E008FEF93ED20E381509040204059
:1005B000E1F700C0000010928C0010928B00CF91E8
:1005C0001F910F9108951F920F920FB60F92112451
:1005D0008F939F9380918B0090918C0001969093C4
:1005E0008C0080938B009F918F910F900FBE0F9086
:1005F0001F9018950E94920181E00E94F10382E30E
:1006000080938D0062E380E00E944E002FEF83ED27
:1006100090E3215080409040E1F700C0000060E08E
:1006200086E390E00E946901882331F042E062E0B5
:1006300085E390E00E94C00062E085E390E00E94C4
:10064000B203882369F166E080E390E00E946901CB
:10065000811106C062E080E390E00E94690181118F
:100660000E94730281E490E00E940D016DE870E049
:1006700080E00E947B0080918D0090E0059782349D
:1006800091051CF081E00E94C30180918D0090E0F3
:100690000596813491051CF681E00E940502BFCFCA
:1006A00080E00E94C30180E00E94050263E0809127
:1006B00060000E94D700B3CFFC0117B816B880B70E
:1006C0008F7180BF808181112EC08281882319F0B3
:1006D000823039F00DC086B1806286B980B780BFA4
:1006E00007C086B1806286B990B78581892B80BFAB
:1006F00097B18181892B87B98481882319F0813052
:1007000029F008C087B1806287B904C097B186819B
:10071000892B87B996B123818781822B892B86B952
:1007200086B1806886B90895442319F0413071F08C
:100730000895FC01408121E030E002C0220F331F08
:100740006A95E2F72095242320830895FC014081D7
:1007500021E030E002C0220F331F6A95E2F7242B1C
:1007600020830895FC01408181E090E09C01062EE9
:1007700002C0220F331F0A94E2F7842F90E08223F5
:10078000932302C0969587956A95E2F708954423CE
:1007900019F0413071F00895FC01408121E030E012
:1007A00002C0220F331F6A95E2F72095242320838D
:1007B0000895FC01408121E030E002C0220F331F88
:1007C0006A95E2F7242B20830895FC01408121E003
:1007D00030E002C0220F331F6A95E2F724272083FE
:1007E0000895882319F0813029F008958FB78F7705
:1007F0008FBF08958FB780688FBF0895FC018081F7
:10080000882319F0813019F1089513BE818188235E
:1008100019F0883041F015C083B783BF99B7838141
:10082000892B89BF0EC083B7886083BF29B79381A6
:10083000892F90E0880F991F822B89BF8481815076
:100840008CBF93B78281892B83BF12BE08951EBCD3
:100850001DBC1CBC8181882319F0883071F01DC03B
:100860008EB58EBD29B79381892F90E0880F991F8F
:10087000880F991F822B89BF10C08EB588608EBDEE
:1008800029B7938130E1939FC0011124822B89BF46
:100890008481958101979BBD8ABD9EB58281892BFC
:1008A0008EBD0895CF93DF93EC0116BE12B810B839
:1008B00011B882E082B98881813019F130F082303C
:1008C000F1F1833009F469C09DC06A817B818C811C
:1008D0009D810E9438069B01AC010E942B059B0163
:1008E000AC0160E074E284E79BE40E94970520E09D
:1008F00030E040E051E40E942A050E94090660B9F8
:1009000081C06A817B818C819D810E94380620E0B4
:1009100030E040E051E40E94C6069B01AC0160E07B
:1009200074E284E79BE40E94970520E030E040E019
:1009300050E40E942A050E94090660B963C08A81BA
:100940009B81AC81BD81880F991FAA1FBB1F880F97
:10095000991FAA1FBB1F880F991FAA1FBB1F880FB3
:10096000991FAA1FBB1FBC01CD01660F771F881FEF
:10097000991F0E9438069B01AC0160E074E284E795
:100980009BE40E94970520E030E040E05FE30E9496
:100990002A050E94090660B935C08A819B81AC8115
:1009A000BD81880F991FAA1FBB1F880F991FAA1FFF
:1009B000BB1F880F991FAA1FBB1F880F991FAA1F53
:1009C000BB1F880F991FAA1FBB1F880F991FAA1F43
:1009D000BB1FBC01CD01660F771F881F991F0E94A6
:1009E00038069B01AC0160E074E284E79BE40E945E
:1009F000970520E030E040E05EE30E942A050E9477
:100A0000090660B991B18881892B81B996B789812E
:100A1000892B86BF86B7846086BFDF91CF9108950A
:100A200084EA86BF06B607FEFDCF089584E986BF37
:100A3000089583B984E886BF06B607FEFDCF089502
:100A400084E886BF06B607FEFDCF83B1089581B165
:100A5000887F08955058BB27AA270E9442050C940E
:100A60008C060E947E0638F00E94850620F039F43C
:100A70009F3F19F426F40C947B060EF4E095E7FBF7
:100A80000C947506E92F0E949D0658F3BA17620769
:100A900073078407950720F079F4A6F50C94BF0638
:100AA0000EF4E0950B2EBA2FA02D0B01B901900189
:100AB0000C01CA01A0011124FF27591B99F0593FCD
:100AC00050F4503E68F11A16F040A22F232F342F15
:100AD0004427585FF3CF469537952795A795F04063
:100AE0005395C9F77EF41F16BA0B620B730B840B78
:100AF000BAF09150A1F0FF0FBB1F661F771F881F30
:100B0000C2F70EC0BA0F621F731F841F48F4879587
:100B100077956795B795F7959E3F08F0B0CF939579
:100B2000880F08F09927EE0F9795879508950E94F2
:100B3000AB050C948C060E94850658F00E947E0638
:100B400040F029F45F3F29F00C94750651110C9484
:100B5000C0060C947B060E949D0668F39923B1F3AE
:100B6000552391F3951B550BBB27AA2762177307D3
:100B7000840738F09F5F5F4F220F331F441FAA1F67
:100B8000A9F335D00E2E3AF0E0E832D09150504023
:100B9000E695001CCAF72BD0FE2F29D0660F771FD1
:100BA000881FBB1F261737074807AB07B0E809F0B7
:100BB000BB0B802DBF01FF2793585F4F3AF09E3F3C
:100BC000510578F00C9475060C94C0065F3FE4F371
:100BD000983ED4F3869577956795B795F7959F5F7F
:100BE000C9F7880F911D9695879597F90895E1E0CB
:100BF000660F771F881FBB1F621773078407BA072A
:100C000020F0621B730B840BBA0BEE1F88F7E09584
:100C100008950E94A50688F09F5798F0B92F99274C
:100C2000B751B0F0E1F0660F771F881F991F1AF0D7
:100C3000BA95C9F714C0B13091F00E94BF06B1E077
:100C400008950C94BF06672F782F8827B85F39F076
:100C5000B93FCCF3869577956795B395D9F73EF470
:100C600090958095709561957F4F8F4F9F4F089518
:100C7000E89409C097FB3EF4909580957095619536
:100C80007F4F8F4F9F4F9923A9F0F92F96E9BB27EC
:100C90009395F695879577956795B795F111F8CF68
:100CA000FAF4BB0F11F460FF1BC06F5F7F4F8F4FD3
:100CB0009F4F16C0882311F096E911C0772321F0C9
:100CC0009EE8872F762F05C0662371F096E8862F61
:100CD00070E060E02AF09A95660F771F881FDAF7B8
:100CE000880F9695879597F9089597F99F6780E8FB
:100CF00070E060E008959FEF80EC089500240A946E
:100D00001616170618060906089500240A941216E6
:100D10001306140605060895092E0394000C11F419
:100D2000882352F0BB0F40F4BF2B11F460FF04C0C6
:100D30006F5F7F4F8F4F9F4F089557FD9058440F1F
:100D4000551F59F05F3F71F04795880F97FB991F2A
:100D500061F09F3F79F087950895121613061406E7
:100D6000551FF2CF4695F1DF08C016161706180674
:100D7000991FF1CF86957105610508940895E8944F
:100D8000BB2766277727CB0197F908950E94D906DC
:100D90000C948C060E947E0638F00E94850620F096
:100DA000952311F00C9475060C947B0611240C9479
:100DB000C0060E949D0670F3959FC1F3950F50E009
:100DC000551F629FF001729FBB27F00DB11D639FFD
:100DD000AA27F00DB11DAA1F649F6627B00DA11DA3
:100DE000661F829F2227B00DA11D621F739FB00D49
:100DF000A11D621F839FA00D611D221F749F3327B9
:100E0000A00D611D231F849F600D211D822F762F51
:100E10006A2F11249F5750409AF0F1F088234AF02E
:100E2000EE0FFF1FBB1F661F771F881F915050409A
:100E3000A9F79E3F510580F00C9475060C94C006EE
:100E40005F3FE4F3983ED4F3869577956795B79521
:100E5000F795E7959F5FC1F7FE2B880F911D96953B
:100E6000879597F90895A29FB001B39FC001A39FF2
:100E7000700D811D1124911DB29F700D811D1124D3
:080E8000911D0895F894FFCFC5
:100E88000010203040506070809000400107010041
:100E9800200000000401000001080501093D0200CE
:0A0EA800040100000000A086010014
:00000001FF
