S0170000456C656374726963204865617465722E7372656369
S11300000C942A000C9447000C9447000C9447006D
S11300100C9447000C9447000C9447000C94470040
S11300200C9447000C9447000C9447000C9456031E
S11300300C9447000C9447000C9447000C94470020
S11300400C9447000C9447000C9447000C94470010
S11300500C94470011241FBECFE5D8E0DEBFCDBF0E
S113006010E0A0E6B0E0E2E2F0E102C005900D92FB
S1130070AA38B107D9F720E0AAE8B0E001C01D9280
S1130080AF38B207E1F70E9472030C940F080C9486
S1130090000084E890E00E941F050895CF93DF9349
S11300A0C82FD62F0E94DD050E94F4058830C9F4BC
S11300B082EA0E94E6050E94F4058831A1F48C2F9F
S11300C00E94E6050E94F405883279F48D2F0E947F
S11300D0E6050E94F405883251F40E94E30581E0AC
S11300E007C080E005C080E003C080E001C080E07C
S11300F0DF91CF9108950F931F93CF93C82F8B0156
S11301000E94DD050E94F405883039F582EA0E94D8
S1130110E6050E94F405883111F58C2F0E94E6054E
S11301200E94F4058832E9F40E94DD050E94F4057A
S11301308031C9F483EA0E94E6050E94F405803404
S1130140A1F40E94ED05F80180830E94F40588352E
S113015071F40E94E30581E00BC080E009C080E0F7
S113016007C080E005C080E003C080E001C080E0FB
S1130170CF911F910F91089541E00E946104089569
S1130180423019F40E94B20408950E949404089520
S113019041E061E087E390E00E94610441E062E0B5
S11301A087E390E00E94610480EF8ABB0895CF93B7
S11301B0C82F613019F0623071F01AC041E061E07B
S11301C088E390E00E94940440E062E088E390E0D9
S11301D00E94940419C041E062E088E390E00E9428
S11301E0940440E061E088E390E00E9494040CC031
S11301F040E061E088E390E00E94940440E062E023
S113020088E390E00E9494048BB38F708BBB8BB314
S1130210C07FC82BCBBBCF910895CF93DF93EC0164
S11302209C013695279536952795ABE7B4E10E9456
S113023000089C013695279544E6429FC001439FE0
S1130240900D11249E01281B390BADECBCEC0E94CF
S11302500008969587959695879596958795FC01C0
S1130260E05AFF4F62E080810E94D7008FE39CE94F
S11302700197F1F700C000009E01ADECBCEC0E94B8
S113028000089695879596958795969587959C01F0
S1130290220F331F880F991F880F991F880F991FEA
S11302A0820F931F9E01281B390BF901E05AFF4F5F
S11302B061E080810E94D7008FE39CE90197F1F708
S11302C000C00000DF91CF91089540E00E946104D6
S11302D008951F93CF93DF93EC01162F0E947F04A0
S11302E090918A00891791F02FEF89EF90E02150C7
S11302F080409040E1F700C00000612FCE010E94D1
S11303007F0480938A00813019F403C080E001C027
S113031080E0DF91CF911F9108958AE690E00E94DA
S1130320E7030895CF92DF92EF92FF920F931F930A
S1130330CF93DF9300D0CDB7DEB71A82198280E065
S11303400E941F0410916E00AE014F5F5F4F612F3A
S113035080E00E942504112329F0113031F000E0DF
S113036010E005C000E011E002C000E014E0698183
S11303707A8180E090E00E94050720E030E040EAC6
S113038050E40E9493076B017C01B80180E090E087
S11303900E9405079B01AC01C701B6010E946406D7
S11303A020E030E048EC52E40E9493070E94D60615
S11303B0862F0F900F90DF91CF911F910F91FF9097
S11303C0EF90DF90CF90089541E063E084E390E004
S11303D00E94610441E064E084E390E00E946104CF
S11303E00E94C80060E087E390E00E94650166E037
S11303F081E390E00E94650162E081E390E00E9465
S1130400650162E084E390E00E94BC0067E084E35D
S113041090E00E94BC0063E081E390E00E94BC0095
S11304200E948D010E9449000895882399F181302A
S1130430E9F541E063E085E390E00E94940440E044
S113044064E085E390E00E94940440E063E082E38A
S113045090E00E94C00041E067E085E390E00E94E4
S1130460C0002FEF83ED90E3215080409040E1F7EE
S113047000C0000040E067E085E390E00E94C00017
S11304802FEF83EC99E0215080409040E1F700C0C9
S11304900000089540E063E085E390E00E94940446
S11304A040E067E085E390E00E94C000089588235F
S11304B0A9F08130F9F441E064E085E390E00E9422
S11304C0940440E063E085E390E00E94940441E0FA
S11304D063E082E390E00E94C000089540E064E09D
S11304E085E390E00E94940440E063E082E390E0BE
S11304F00E94C00008951F93CF93DF930E9492013E
S1130500182FD0E0C1E011C00E949201D80F2FEF44
S113051081EE94E0215080409040E1F700C000005B
S1130520812F90E00E940D01CF5FCB3068F38DECFA
S1130530D89F812D1124869586958695DF91CF913C
S11305401F910895CF93DF93C82F89E2C89F812D0F
S1130550112482958F70EC2F24E6829FE0191124D8
S1130560DDECED9FE12D1124E695E695E695F0E0AE
S1130570E05AFF4F62E080810E94D7008FE39CE93C
S11305800197F1F700C00000CD9FD12D1124D6951D
S1130590D695D695DD0F8D2F880F880FD80FCD1BDC
S11305A0EC2FF0E0E05AFF4FC08161E08C2F0E94F5
S11305B0D7008FE39CE90197F1F700C0000063E0E6
S11305C08C2F0E94D7009FEF21EE84E091502040B1
S11305D08040E1F700C00000DF91CF910895CF93F0
S11305E082E790E00E94CB0445C06EE870E080E0B2
S11305F00E947B0080918E0090E00E940D0166E0D5
S113060080E390E00E946901C82F62E080E390E0FB
S11306100E946901CC2379F080918E008734D8F44C
S11306208B5F80938E0090E00E940D0110928D00EC
S113063010928C0010C0882371F080918E00883253
S113064050F0855080938E0090E00E940D0110922E
S11306508D0010928C0080918B008A3759F46EE8DB
S113066070E080E00E947B0080918E000E94A202D4
S113067010928B0080918C0090918D00843C94406A
S113068008F4B3CF60918E0080E00E944E008FEF9B
S113069093ED20E3815090402040E1F700C000003A
S11306A010928D0010928C00CF9108951F920F929A
S11306B00FB60F9211248F939F9380918C00909189
S11306C08D00019690938D0080938C0080918B0017
S11306D08F5F80938B009F918F910F900FBE0F902F
S11306E01F9018950E94E40181E00E94BE0482E3F9
S11306F080938E0062E380E00E944E002FEF83ED32
S113070090E3215080409040E1F700C0000060E099
S113071086E390E00E946901882379F042E062E078
S113072085E390E00E94C0002FEF81EE94E0215019
S113073080409040E1F700C0000062E085E390E073
S11307400E947F04882389F166E080E390E00E94A0
S11307506901811106C062E080E390E00E946901B2
S113076081110E94EF020E947B02C82FD0E0CE01CB
S11307700E940D016EE870E080E00E947B00809191
S11307808E0090E00597C817D9071CF481E00E94F9
S1130790150280918E0090E005968C179D070CF051
S11307A0B6CF81E00E945702B2CF80E00E941502CA
S11307B080E00E94570263E0809160000E94D700AD
S11307C0A6CF349902C081E0089582E00895FC0127
S11307D017B816B880B78F7180BF808181112EC081
S11307E08281882319F0823039F00DC086B180628D
S11307F086B980B780BF07C086B1806286B990B7DA
S11308008581892B80BF97B18181892B87B98481A8
S1130810882319F0813029F008C087B1806287B934
S113082004C097B18681892B87B996B123818781CA
S1130830822B892B86B986B1806886B90895811187
S113084003C086B1806486B908950F931F93CF9334
S1130850C62F8A0197B1907E97B997B1892B87B932
S11308600E94E1038130E1F3CC2319F0C13039F067
S113087021C085B190E0F801918380831BC08091F1
S11308807000882319F0803239F014C084B195B116
S1130890F801918380830EC084B195B10024880F40
S11308A0991F001C880F991F001C892F902DF80197
S11308B09183808386B1806186B9CF911F910F9116
S11308C00895442319F0413071F00895FC014081EA
S11308D021E030E002C0220F331F6A95E2F7209531
S11308E0242320830895FC01408121E030E002C0EC
S11308F0220F331F6A95E2F7242B20830895FC010D
S1130900408181E090E09C01062E02C0220F331F3B
S11309100A94E2F7842F90E08223932302C09695F1
S113092087956A95E2F70895442319F0413071F0F0
S11309300895FC01408121E030E002C0220F331F02
S11309406A95E2F72095242320830895FC014081D1
S113095021E030E002C0220F331F6A95E2F7242B16
S113096020830895FC01408121E030E002C0220F81
S1130970331F6A95E2F7242720830895882319F00A
S1130980813029F008958FB78F778FBF08958FB77F
S113099080688FBF0895FC018081882319F081301D
S11309A019F1089513BE8181882319F0883041F02C
S11309B015C083B783BF99B78381892B89BF0EC0C4
S11309C083B7886083BF29B79381892F90E0880F0C
S11309D0991F822B89BF848181508CBF93B78281F8
S11309E0892B83BF12BE08951EBC1DBC1CBC818113
S11309F0882319F0883071F01DC08EB58EBD29B7DB
S1130A009381892F90E0880F991F880F991F822B5B
S1130A1089BF10C08EB588608EBD29B7938130E13F
S1130A20939FC0011124822B89BF848195810197F2
S1130A309BBD8ABD9EB58281892B8EBD0895CF93BF
S1130A40DF93EC0116BE12B810B811B882E082B977
S1130A508881813019F130F08230F1F1833009F46A
S1130A6069C09DC06A817B818C819D810E9405073C
S1130A709B01AC010E94F8059B01AC0160E074E2AB
S1130A8084E79BE40E94640620E030E040E051E407
S1130A900E94F7050E94D60660B981C06A817B81F5
S1130AA08C819D810E94050720E030E040E051E404
S1130AB00E9493079B01AC0160E074E284E79BE42D
S1130AC00E94640620E030E040E050E40E94F70514
S1130AD00E94D60660B963C08A819B81AC81BD81C6
S1130AE0880F991FAA1FBB1F880F991FAA1FBB1F1E
S1130AF0880F991FAA1FBB1F880F991FAA1FBB1F0E
S1130B00BC01CD01660F771F881F991F0E9405073E
S1130B109B01AC0160E074E284E79BE40E946406FC
S1130B2020E030E040E05FE30E94F7050E94D60633
S1130B3060B935C08A819B81AC81BD81880F991FC2
S1130B40AA1FBB1F880F991FAA1FBB1F880F991FBD
S1130B50AA1FBB1F880F991FAA1FBB1F880F991FAD
S1130B60AA1FBB1F880F991FAA1FBB1FBC01CD0161
S1130B70660F771F881F991F0E9405079B01AC0110
S1130B8060E074E284E79BE40E94640620E030E0C5
S1130B9040E05EE30E94F7050E94D60660B991B179
S1130BA08881892B81B996B78981892B86BF86B7BD
S1130BB0846086BFDF91CF91089584EA86BF06B62C
S1130BC007FEFDCF089584E986BF089583B984E8BC
S1130BD086BF06B607FEFDCF089584E886BF06B635
S1130BE007FEFDCF83B1089581B1887F08955058E1
S1130BF0BB27AA270E940F060C9459070E944B0793
S1130C0038F00E94520720F039F49F3F19F426F47B
S1130C100C9448070EF4E095E7FB0C944207E92F87
S1130C200E946A0758F3BA17620773078407950787
S1130C3020F079F4A6F50C948C070EF4E0950B2EB5
S1130C40BA2FA02D0B01B90190010C01CA01A0011A
S1130C501124FF27591B99F0593F50F4503E68F175
S1130C601A16F040A22F232F342F4427585FF3CFB6
S1130C70469537952795A795F0405395C9F77EF487
S1130C801F16BA0B620B730B840BBAF09150A1F0D0
S1130C90FF0FBB1F661F771F881FC2F70EC0BA0F56
S1130CA0621F731F841F48F4879577956795B795DE
S1130CB0F7959E3F08F0B0CF9395880F08F09927D9
S1130CC0EE0F9795879508950E9478060C9459071E
S1130CD00E94520758F00E944B0740F029F45F3FEE
S1130CE029F00C94420751110C948D070C94480779
S1130CF00E946A0768F39923B1F3552391F3951B76
S1130D00550BBB27AA2762177307840738F09F5F28
S1130D105F4F220F331F441FAA1FA9F335D00E2E95
S1130D203AF0E0E832D091505040E695001CCAF702
S1130D302BD0FE2F29D0660F771F881FBB1F2617C5
S1130D4037074807AB07B0E809F0BB0B802DBF019C
S1130D50FF2793585F4F3AF09E3F510578F00C946B
S1130D6042070C948D075F3FE4F3983ED4F38695D5
S1130D7077956795B795F7959F5FC9F7880F911D8C
S1130D809695879597F90895E1E0660F771F881F78
S1130D90BB1F621773078407BA0720F0621B730B2B
S1130DA0840BBA0BEE1F88F7E09508950E94720732
S1130DB088F09F5798F0B92F9927B751B0F0E1F018
S1130DC0660F771F881F991F1AF0BA95C9F714C0C8
S1130DD0B13091F00E948C07B1E008950C948C0717
S1130DE0672F782F8827B85F39F0B93FCCF3869501
S1130DF077956795B395D9F73EF49095809570955E
S1130E0061957F4F8F4F9F4F0895E89409C097FBDA
S1130E103EF490958095709561957F4F8F4F9F4FCD
S1130E209923A9F0F92F96E9BB279395F695879511
S1130E3077956795B795F111F8CFFAF4BB0F11F4D4
S1130E4060FF1BC06F5F7F4F8F4F9F4F16C088237B
S1130E5011F096E911C0772321F09EE8872F762FB1
S1130E6005C0662371F096E8862F70E060E02AF0F2
S1130E709A95660F771F881FDAF7880F96958795DE
S1130E8097F9089597F99F6780E870E060E0089506
S1130E909FEF80EC089500240A941616170618068E
S1130EA00906089500240A9412161306140605066A
S1130EB00895092E0394000C11F4882352F0BB0FFB
S1130EC040F4BF2B11F460FF04C06F5F7F4F8F4F5E
S1130ED09F4F089557FD9058440F551F59F05F3F99
S1130EE071F04795880F97FB991F61F09F3F79F048
S1130EF087950895121613061406551FF2CF4695CA
S1130F00F1DF08C0161617061806991FF1CF86954B
S1130F107105610508940895E894BB27662777272F
S1130F20CB0197F908950E94A6070C9459070E94D3
S1130F304B0738F00E94520720F0952311F00C94CF
S1130F4042070C94480711240C948D070E946A07E9
S1130F5070F3959FC1F3950F50E0551F629FF00108
S1130F60729FBB27F00DB11D639FAA27F00DB11D21
S1130F70AA1F649F6627B00DA11D661F829F2227AA
S1130F80B00DA11D621F739FB00DA11D621F839F31
S1130F90A00D611D221F749F3327A00D611D231F07
S1130FA0849F600D211D822F762F6A2F11249F5755
S1130FB050409AF0F1F088234AF0EE0FFF1FBB1F58
S1130FC0661F771F881F91505040A9F79E3F510517
S1130FD080F00C9442070C948D075F3FE4F3983E35
S1130FE0D4F3869577956795B795F795E7959F5FC1
S1130FF0C1F7FE2B880F911D9695879597F9089553
S1131000A29FB001B39FC001A39F700D811D112445
S1131010911DB29F700D811D1124911D0895F894A6
S1051020FFCFFC
S113102200102030405060708090004001070100A1
S1131032200000000401000001080501093D02002E
S10D1042040100000000A086010074
S9030000FC
